{
  "contractName": "Lottery",
  "abi": [
    {
      "inputs": [
        {
          "internalType": "address",
          "name": "_ethUsdPriceFeed",
          "type": "address"
        },
        {
          "internalType": "address",
          "name": "_vrfCoordinatorAddress",
          "type": "address"
        },
        {
          "internalType": "address",
          "name": "_linkTokenAddress",
          "type": "address"
        },
        {
          "internalType": "bytes32",
          "name": "_keyHash",
          "type": "bytes32"
        }
      ],
      "stateMutability": "nonpayable",
      "type": "constructor"
    },
    {
      "anonymous": false,
      "inputs": [
        {
          "indexed": true,
          "internalType": "address",
          "name": "previousOwner",
          "type": "address"
        },
        {
          "indexed": true,
          "internalType": "address",
          "name": "newOwner",
          "type": "address"
        }
      ],
      "name": "OwnershipTransferred",
      "type": "event"
    },
    {
      "anonymous": false,
      "inputs": [
        {
          "indexed": false,
          "internalType": "bytes32",
          "name": "requestId",
          "type": "bytes32"
        }
      ],
      "name": "RequestedRandomness",
      "type": "event"
    },
    {
      "inputs": [],
      "name": "fee",
      "outputs": [
        {
          "internalType": "uint256",
          "name": "",
          "type": "uint256"
        }
      ],
      "stateMutability": "view",
      "type": "function",
      "constant": true
    },
    {
      "inputs": [],
      "name": "lotteryState",
      "outputs": [
        {
          "internalType": "enum Lottery.LOTTERY_STATE",
          "name": "",
          "type": "uint8"
        }
      ],
      "stateMutability": "view",
      "type": "function",
      "constant": true
    },
    {
      "inputs": [],
      "name": "owner",
      "outputs": [
        {
          "internalType": "address",
          "name": "",
          "type": "address"
        }
      ],
      "stateMutability": "view",
      "type": "function",
      "constant": true
    },
    {
      "inputs": [
        {
          "internalType": "uint256",
          "name": "",
          "type": "uint256"
        }
      ],
      "name": "players",
      "outputs": [
        {
          "internalType": "address payable",
          "name": "",
          "type": "address"
        }
      ],
      "stateMutability": "view",
      "type": "function",
      "constant": true
    },
    {
      "inputs": [],
      "name": "randomness",
      "outputs": [
        {
          "internalType": "uint256",
          "name": "",
          "type": "uint256"
        }
      ],
      "stateMutability": "view",
      "type": "function",
      "constant": true
    },
    {
      "inputs": [
        {
          "internalType": "bytes32",
          "name": "requestId",
          "type": "bytes32"
        },
        {
          "internalType": "uint256",
          "name": "randomness",
          "type": "uint256"
        }
      ],
      "name": "rawFulfillRandomness",
      "outputs": [],
      "stateMutability": "nonpayable",
      "type": "function"
    },
    {
      "inputs": [],
      "name": "recentWinner",
      "outputs": [
        {
          "internalType": "address",
          "name": "",
          "type": "address"
        }
      ],
      "stateMutability": "view",
      "type": "function",
      "constant": true
    },
    {
      "inputs": [],
      "name": "renounceOwnership",
      "outputs": [],
      "stateMutability": "nonpayable",
      "type": "function"
    },
    {
      "inputs": [
        {
          "internalType": "address",
          "name": "newOwner",
          "type": "address"
        }
      ],
      "name": "transferOwnership",
      "outputs": [],
      "stateMutability": "nonpayable",
      "type": "function"
    },
    {
      "inputs": [],
      "name": "enter",
      "outputs": [],
      "stateMutability": "payable",
      "type": "function",
      "payable": true
    },
    {
      "inputs": [],
      "name": "getEnteranceFee",
      "outputs": [
        {
          "internalType": "uint256",
          "name": "",
          "type": "uint256"
        }
      ],
      "stateMutability": "view",
      "type": "function",
      "constant": true
    },
    {
      "inputs": [],
      "name": "getLatestEthUsdPrice",
      "outputs": [
        {
          "internalType": "uint256",
          "name": "",
          "type": "uint256"
        }
      ],
      "stateMutability": "view",
      "type": "function",
      "constant": true
    },
    {
      "inputs": [],
      "name": "startLottery",
      "outputs": [],
      "stateMutability": "nonpayable",
      "type": "function"
    },
    {
      "inputs": [],
      "name": "endLottery",
      "outputs": [],
      "stateMutability": "nonpayable",
      "type": "function"
    }
  ],
  "bytecode": "0x60c060405234801561001057600080fd5b5060405161164f38038061164f8339818101604052608081101561003357600080fd5b810190808051906020019092919080519060200190929190805190602001909291908051906020019092919050505082828173ffffffffffffffffffffffffffffffffffffffff1660a08173ffffffffffffffffffffffffffffffffffffffff1660601b815250508073ffffffffffffffffffffffffffffffffffffffff1660808173ffffffffffffffffffffffffffffffffffffffff1660601b81525050505060006100e461020e60201b60201c565b905080600160006101000a81548173ffffffffffffffffffffffffffffffffffffffff021916908373ffffffffffffffffffffffffffffffffffffffff1602179055508073ffffffffffffffffffffffffffffffffffffffff16600073ffffffffffffffffffffffffffffffffffffffff167f8be0079c531659141344cd1fd0a4f28419497f9722a3daafe3b4186f6b6457e060405160405180910390a35083600260006101000a81548173ffffffffffffffffffffffffffffffffffffffff021916908373ffffffffffffffffffffffffffffffffffffffff160217905550603260038190555060018060146101000a81548160ff021916908360028111156101ea57fe5b021790555067016345785d8a00006007819055508060088190555050505050610216565b600033905090565b60805160601c60a05160601c61140b610244600039806108f35280610fdb525080610f9f525061140b6000f3fe6080604052600436106100dd5760003560e01c8063715018a61161007f578063ddca3f4311610059578063ddca3f43146102d4578063e97dcb62146102ff578063f2fde38b14610309578063f71d96cb1461035a576100dd565b8063715018a6146102215780638da5cb5b1461023857806394985ddd1461028f576100dd565b806336013189116100bb578063360131891461013b5780634f8c70cf14610166578063535bf50f146101bd5780636939864b146101e8576100dd565b80631593a8c7146100e2578063160344e2146100f95780633021459914610110575b600080fd5b3480156100ee57600080fd5b506100f76103d5565b005b34801561010557600080fd5b5061010e6104e5565b005b34801561011c57600080fd5b506101256105f4565b6040518082815260200191505060405180910390f35b34801561014757600080fd5b506101506106dd565b6040518082815260200191505060405180910390f35b34801561017257600080fd5b5061017b6106e3565b604051808273ffffffffffffffffffffffffffffffffffffffff1673ffffffffffffffffffffffffffffffffffffffff16815260200191505060405180910390f35b3480156101c957600080fd5b506101d2610709565b6040518082815260200191505060405180910390f35b3480156101f457600080fd5b506101fd610744565b6040518082600281111561020d57fe5b60ff16815260200191505060405180910390f35b34801561022d57600080fd5b50610236610757565b005b34801561024457600080fd5b5061024d6108c7565b604051808273ffffffffffffffffffffffffffffffffffffffff1673ffffffffffffffffffffffffffffffffffffffff16815260200191505060405180910390f35b34801561029b57600080fd5b506102d2600480360360408110156102b257600080fd5b8101908080359060200190929190803590602001909291905050506108f1565b005b3480156102e057600080fd5b506102e96109c0565b6040518082815260200191505060405180910390f35b6103076109c6565b005b34801561031557600080fd5b506103586004803603602081101561032c57600080fd5b81019080803573ffffffffffffffffffffffffffffffffffffffff169060200190929190505050610ada565b005b34801561036657600080fd5b506103936004803603602081101561037d57600080fd5b8101908080359060200190929190505050610ccf565b604051808273ffffffffffffffffffffffffffffffffffffffff1673ffffffffffffffffffffffffffffffffffffffff16815260200191505060405180910390f35b6103dd610d0b565b73ffffffffffffffffffffffffffffffffffffffff166103fb6108c7565b73ffffffffffffffffffffffffffffffffffffffff1614610484576040517f08c379a00000000000000000000000000000000000000000000000000000000081526004018080602001828103825260208152602001807f4f776e61626c653a2063616c6c6572206973206e6f7420746865206f776e657281525060200191505060405180910390fd5b6000600281111561049157fe5b600160149054906101000a900460ff1660028111156104ac57fe5b146104b657600080fd5b6002600160146101000a81548160ff021916908360028111156104d557fe5b02179055506104e2610d13565b50565b6104ed610d0b565b73ffffffffffffffffffffffffffffffffffffffff1661050b6108c7565b73ffffffffffffffffffffffffffffffffffffffff1614610594576040517f08c379a00000000000000000000000000000000000000000000000000000000081526004018080602001828103825260208152602001807f4f776e61626c653a2063616c6c6572206973206e6f7420746865206f776e657281525060200191505060405180910390fd5b600160028111156105a157fe5b600160149054906101000a900460ff1660028111156105bc57fe5b146105c657600080fd5b6000600160146101000a81548160ff021916908360028111156105e557fe5b02179055506000600681905550565b600080600080600080600260009054906101000a900473ffffffffffffffffffffffffffffffffffffffff1673ffffffffffffffffffffffffffffffffffffffff1663feaf968c6040518163ffffffff1660e01b815260040160a06040518083038186803b15801561066557600080fd5b505afa158015610679573d6000803e3d6000fd5b505050506040513d60a081101561068f57600080fd5b81019080805190602001909291908051906020019092919080519060200190929190805190602001909291908051906020019092919050505094509450945094509450839550505050505090565b60065481565b600460009054906101000a900473ffffffffffffffffffffffffffffffffffffffff1681565b600080670de0b6b3a7640000905060006107216105f4565b905060006305f5e1006003540282848161073757fe5b0402905080935050505090565b600160149054906101000a900460ff1681565b61075f610d0b565b73ffffffffffffffffffffffffffffffffffffffff1661077d6108c7565b73ffffffffffffffffffffffffffffffffffffffff1614610806576040517f08c379a00000000000000000000000000000000000000000000000000000000081526004018080602001828103825260208152602001807f4f776e61626c653a2063616c6c6572206973206e6f7420746865206f776e657281525060200191505060405180910390fd5b600073ffffffffffffffffffffffffffffffffffffffff16600160009054906101000a900473ffffffffffffffffffffffffffffffffffffffff1673ffffffffffffffffffffffffffffffffffffffff167f8be0079c531659141344cd1fd0a4f28419497f9722a3daafe3b4186f6b6457e060405160405180910390a36000600160006101000a81548173ffffffffffffffffffffffffffffffffffffffff021916908373ffffffffffffffffffffffffffffffffffffffff160217905550565b6000600160009054906101000a900473ffffffffffffffffffffffffffffffffffffffff16905090565b7f000000000000000000000000000000000000000000000000000000000000000073ffffffffffffffffffffffffffffffffffffffff163373ffffffffffffffffffffffffffffffffffffffff16146109b2576040517f08c379a000000000000000000000000000000000000000000000000000000000815260040180806020018281038252601f8152602001807f4f6e6c7920565246436f6f7264696e61746f722063616e2066756c66696c6c0081525060200191505060405180910390fd5b6109bc8282610d93565b5050565b60075481565b6109ce610709565b341015610a43576040517f08c379a00000000000000000000000000000000000000000000000000000000081526004018080602001828103825260198152602001807f556e73756666696369656e742045544820746f20656e7465720000000000000081525060200191505060405180910390fd5b60006002811115610a5057fe5b600160149054906101000a900460ff166002811115610a6b57fe5b14610a7557600080fd5b6005339080600181540180825580915050600190039060005260206000200160009091909190916101000a81548173ffffffffffffffffffffffffffffffffffffffff021916908373ffffffffffffffffffffffffffffffffffffffff160217905550565b610ae2610d0b565b73ffffffffffffffffffffffffffffffffffffffff16610b006108c7565b73ffffffffffffffffffffffffffffffffffffffff1614610b89576040517f08c379a00000000000000000000000000000000000000000000000000000000081526004018080602001828103825260208152602001807f4f776e61626c653a2063616c6c6572206973206e6f7420746865206f776e657281525060200191505060405180910390fd5b600073ffffffffffffffffffffffffffffffffffffffff168173ffffffffffffffffffffffffffffffffffffffff161415610c0f576040517f08c379a00000000000000000000000000000000000000000000000000000000081526004018080602001828103825260268152602001806113b06026913960400191505060405180910390fd5b8073ffffffffffffffffffffffffffffffffffffffff16600160009054906101000a900473ffffffffffffffffffffffffffffffffffffffff1673ffffffffffffffffffffffffffffffffffffffff167f8be0079c531659141344cd1fd0a4f28419497f9722a3daafe3b4186f6b6457e060405160405180910390a380600160006101000a81548173ffffffffffffffffffffffffffffffffffffffff021916908373ffffffffffffffffffffffffffffffffffffffff16021790555050565b60058181548110610cdc57fe5b906000526020600020016000915054906101000a900473ffffffffffffffffffffffffffffffffffffffff1681565b600033905090565b6000600280811115610d2157fe5b600160149054906101000a900460ff166002811115610d3c57fe5b14610d4657600080fd5b6000610d56600854600754610f9b565b90507fe5f5b44d72d4143c278eb745c4acc0695c4a5bc616be5beecf46abe29661780e816040518082815260200191505060405180910390a15090565b60008111610e09576040517f08c379a00000000000000000000000000000000000000000000000000000000081526004018080602001828103825260178152602001807f72616e646f6d206e756d626572206e6f7420666f756e6400000000000000000081525060200191505060405180910390fd5b60006005805490508281610e1957fe5b06905060058181548110610e2957fe5b9060005260206000200160009054906101000a900473ffffffffffffffffffffffffffffffffffffffff1673ffffffffffffffffffffffffffffffffffffffff166108fc479081150290604051600060405180830381858888f19350505050158015610e99573d6000803e3d6000fd5b5060058181548110610ea757fe5b9060005260206000200160009054906101000a900473ffffffffffffffffffffffffffffffffffffffff16600460006101000a81548173ffffffffffffffffffffffffffffffffffffffff021916908373ffffffffffffffffffffffffffffffffffffffff160217905550600067ffffffffffffffff81118015610f2a57600080fd5b50604051908082528060200260200182016040528015610f595781602001602082028036833780820191505090505b5060059080519060200190610f6f9291906112e2565b5060018060146101000a81548160ff02191690836002811115610f8e57fe5b0217905550819150505050565b60007f000000000000000000000000000000000000000000000000000000000000000073ffffffffffffffffffffffffffffffffffffffff16634000aea07f00000000000000000000000000000000000000000000000000000000000000008486600060405160200180838152602001828152602001925050506040516020818303038152906040526040518463ffffffff1660e01b8152600401808473ffffffffffffffffffffffffffffffffffffffff1673ffffffffffffffffffffffffffffffffffffffff16815260200183815260200180602001828103825283818151815260200191508051906020019080838360005b838110156110ab578082015181840152602081019050611090565b50505050905090810190601f1680156110d85780820380516001836020036101000a031916815260200191505b50945050505050602060405180830381600087803b1580156110f957600080fd5b505af115801561110d573d6000803e3d6000fd5b505050506040513d602081101561112357600080fd5b810190808051906020019092919050505050600061115684600030600080898152602001908152602001600020546111a7565b905061117e60016000808781526020019081526020016000205461122190919063ffffffff16565b6000808681526020019081526020016000208190555061119e84826112a9565b91505092915050565b600084848484604051602001808581526020018481526020018373ffffffffffffffffffffffffffffffffffffffff1673ffffffffffffffffffffffffffffffffffffffff1681526020018281526020019450505050506040516020818303038152906040528051906020012060001c9050949350505050565b60008082840190508381101561129f576040517f08c379a000000000000000000000000000000000000000000000000000000000815260040180806020018281038252601b8152602001807f536166654d6174683a206164646974696f6e206f766572666c6f77000000000081525060200191505060405180910390fd5b8091505092915050565b60008282604051602001808381526020018281526020019250505060405160208183030381529060405280519060200120905092915050565b82805482825590600052602060002090810192821561135b579160200282015b8281111561135a5782518260006101000a81548173ffffffffffffffffffffffffffffffffffffffff021916908373ffffffffffffffffffffffffffffffffffffffff16021790555091602001919060010190611302565b5b509050611368919061136c565b5090565b6113ac91905b808211156113a857600081816101000a81549073ffffffffffffffffffffffffffffffffffffffff021916905550600101611372565b5090565b9056fe4f776e61626c653a206e6577206f776e657220697320746865207a65726f2061646472657373a264697066735822122093079de627088b03c8d98cc90ebb1060196218a2eb4639d2bbc552fba480e52064736f6c63430006060033",
  "immutableReferences": {
    "369": [
      {
        "length": 32,
        "start": 3999
      }
    ],
    "371": [
      {
        "length": 32,
        "start": 2291
      },
      {
        "length": 32,
        "start": 4059
      }
    ]
  },
  "source": "pragma solidity ^0.6.6;\n\nimport \"@chainlink/contracts/src/v0.6/interfaces/AggregatorV3Interface.sol\";\nimport \"@chainlink/contracts/src/v0.6/vendor/SafeMathChainlink.sol\";\nimport \"@chainlink/contracts/src/v0.6/VRFConsumerBase.sol\";\nimport \"@openzeppelin/contracts/access/Ownable.sol\";\n\ncontract Lottery is VRFConsumerBase, Ownable{\n\n    using SafeMathChainlink for uint256;\n\n    enum LOTTERY_STATE {OPEN, CLOSED, CALCULATING_WINNER}\n    LOTTERY_STATE public lotteryState;\n    AggregatorV3Interface internal ethUsdPriceFeed;\n    uint256 usdEntryFee;\n    address public recentWinner;\n    address payable[] public players;\n    uint256 public randomness;\n    uint256 public fee;\n    bytes32 keyHash;\n\n    event RequestedRandomness(bytes32 requestId);\n\n\n    constructor(address _ethUsdPriceFeed, address _vrfCoordinatorAddress, address _linkTokenAddress, bytes32 _keyHash) public \n    VRFConsumerBase(\n            _vrfCoordinatorAddress, // VRF Coordinator\n            _linkTokenAddress  // LINK Token\n        ){\n        ethUsdPriceFeed = AggregatorV3Interface(_ethUsdPriceFeed);\n        usdEntryFee = 50;\n        lotteryState = LOTTERY_STATE.CLOSED;\n        fee = 100000000000000000; //0.1 LINK\n        keyHash = _keyHash;\n    }\n\n    function enter() public payable {\n        require(msg.value >= getEnteranceFee(), \"Unsufficient ETH to enter\");\n        require(lotteryState == LOTTERY_STATE.OPEN);\n        players.push(msg.sender);\n    }\n\n    function getEnteranceFee() public view returns(uint256) {\n        uint256 precision = 1 * 10 ** 18;\n        uint256 price = getLatestEthUsdPrice();\n        uint256 costToEnter = (precision / price) *  (usdEntryFee * 100000000);\n        return costToEnter;\n    }\n\n    function getLatestEthUsdPrice() public view returns(uint256) {\n         (\n            uint80 roundID ,\n            int price,\n            uint startedAt ,\n            uint timeStamp,\n            uint80 answeredInRound \n        ) = ethUsdPriceFeed.latestRoundData();\n        return uint256(price);\n    }\n\n    function startLottery() public onlyOwner{\n        require(lotteryState == LOTTERY_STATE.CLOSED);\n        lotteryState = LOTTERY_STATE.OPEN;\n        randomness = 0;\n    }\n\n    function endLottery() public onlyOwner{\n        require(lotteryState == LOTTERY_STATE.OPEN);\n        lotteryState = LOTTERY_STATE.CALCULATING_WINNER;\n        pickWinner();\n    }\n\n    function pickWinner() private returns(bytes32){\n        require(lotteryState == LOTTERY_STATE.CALCULATING_WINNER);\n        bytes32 requestId = requestRandomness(keyHash, fee);\n        emit RequestedRandomness(requestId);\n    }\n\n    function fulfillRandomness(bytes32 requestId, uint256 randomness) internal override {\n        require(randomness > 0, \"random number not found\");\n        uint256 index = randomness % players.length;\n        players[index].transfer(address(this).balance);\n        recentWinner = players[index];\n        players = new address payable[](0);\n        lotteryState = LOTTERY_STATE.CLOSED;\n        randomness = randomness;\n    }\n}",
  "sourcePath": "/Users/vineet/ethereum-course-advanced/lottery/contracts/Lottery.sol",
  "compiler": {
    "name": "solc",
    "version": "0.6.6+commit.6c089d02.Emscripten.clang"
  },
  "schemaVersion": "3.3.4",
  "updatedAt": "2021-10-05T23:51:37.222Z",
  "networkType": "ethereum",
  "devdoc": {
    "methods": {
      "owner()": {
        "details": "Returns the address of the current owner."
      },
      "renounceOwnership()": {
        "details": "Leaves the contract without owner. It will not be possible to call `onlyOwner` functions anymore. Can only be called by the current owner.     * NOTE: Renouncing ownership will leave the contract without an owner, thereby removing any functionality that is only available to the owner."
      },
      "transferOwnership(address)": {
        "details": "Transfers ownership of the contract to a new account (`newOwner`). Can only be called by the current owner."
      }
    }
  },
  "userdoc": {
    "methods": {}
  }
}